:100000000C9446000C9465000C9465000C946500FB
:100010000C9465000C9465000C9465000C946500CC
:100020000C9465000C9465000C9465000C946500BC
:100030000C9465000C940C010C9465000C94650004
:100040000C9465000C9465000C9465000C9465009C
:100050000C9465000C9465000C9465000C9465008C
:100060000C9465000C9465000C9465000C9465007C
:100070000C9465000C9465000C9465000C9465006C
:100080000C9465000C9465000C94650011241FBE4F
:10009000CFEFD0E4DEBFCDBF11E0A0E0B1E0E6EFEE
:1000A000F5E000E00BBF02C007900D92A231B1074E
:1000B000D9F721E0A2E1B1E001C01D92AB31B20756
:1000C000E1F70E94CF020C94F9020C940000CF9348
:1000D000DF9300D01F92CDB7DEB789837B836A831D
:1000E00089818A3031F48A819B81BC018DE00E9434
:1000F000670080EC90E0FC018081882F90E08072A6
:100100009927892BB1F386EC90E02981FC012083AB
:1001100080E090E00F900F900F90DF91CF910895C5
:10012000CF93DF9300D000D0CDB7DEB769837A8359
:100130008B839C8389819A81AB81BC8180930E01E2
:1001400090930F01A0931001B093110180910E01C3
:1001500090910F01A0911001B091110180931301B2
:1001600090931401A0931501B093160100000F9015
:100170000F900F900F90DF91CF910895CF93DF9361
:10018000CDB7DEB781E890E02BE0FC01208388E862
:1001900090E02DE730E0FC01318320838FE690E092
:1001A00022E0FC01208384E890E0FC0111821082AF
:1001B00080910E0190910F01A0911001B091110159
:1001C0008093130190931401A0931501B09316012D
:1001D0008FE590E02FE530E0F90120812068FC01F7
:1001E00020830000DF91CF910895CF93DF93CDB7A7
:1001F000DEB781E890E0FC0110820000DF91CF9132
:100200000895CF93DF93CDB7DEB781E080931201DD
:100210000000DF91CF9108951F920F9200905F0030
:100220000F92112400905B000F922F933F934F93F6
:100230005F936F937F938F939F93AF93BF93EF934E
:10024000FF93CF93DF93CDB7DEB7809113019091E9
:100250001401A0911501B09116010197A109B109EE
:100260008093130190931401A0931501B09316018C
:100270008091130190911401A0911501B091160184
:10028000892B8A2B8B2B91F40E94010180910E0106
:1002900090910F01A0911001B09111018093130171
:1002A00090931401A0931501B09316010000DF9103
:1002B000CF91FF91EF91BF91AF919F918F917F91DE
:1002C0006F915F914F913F912F910F9000925B0042
:1002D0000F9000925F000F901F901895CF93DF93BF
:1002E0001F92CDB7DEB7898389818130E1F081EC3F
:1002F00090E021EC30E0F90120812861FC012083AD
:1003000082EC90E022EC30E0F90120812660FC01D3
:10031000208384EC90E023E3FC01208385EC90E0D3
:10032000FC0110821BC089EC90E029EC30E0F9015F
:1003300020812861FC0120838AEC90E02AEC30E0E7
:10034000F90120812660FC0120838CEC90E023E3FE
:10035000FC0120838DEC90E0FC01108200000F90E6
:10036000DF91CF910895CF93DF931F92CDB7DEB782
:1003700089838981813031F080EC90E0FC018081BB
:10038000807205C088EC90E0FC01808180720F9043
:10039000DF91CF910895CF93DF931F92CDB7DEB752
:1003A00089838981813031F080EC90E0FC0180818B
:1003B000807405C088EC90E0FC01808180740F900F
:1003C000DF91CF910895CF93DF931F92CDB7DEB722
:1003D00089838981813031F080EC90E0FC0180815B
:1003E000807805C088EC90E0FC01808180780F90D7
:1003F000DF91CF910895CF93DF931F92CDB7DEB7F2
:10040000898389818130A1F006C086EC90E0FC01EF
:1004100080818093170180EC90E0FC01808188232B
:10042000A4F30CC08EEC90E0FC0180818093170156
:1004300088EC90E0FC0180818823A4F300000F90F9
:10044000DF91CF910895CF93DF9300D0CDB7DEB782
:1004500089836A838A81813089F0000080EC90E092
:10046000FC018081882F90E080729927892BB1F35D
:1004700086EC90E02981FC01208310C0000088EC0C
:1004800090E0FC018081882F90E080729927892B71
:10049000B1F38EEC90E02981FC01208300000F90E5
:1004A0000F90DF91CF910895CF93DF931F92CDB737
:1004B000DEB789838981813061F0000080EC90E0B3
:1004C000FC0180818823D4F786EC90E0FC018081D8
:1004D0000BC0000088EC90E0FC0180818823D4F7F9
:1004E0008EEC90E0FC0180810F90DF91CF91089518
:1004F000CF93DF93CDB7DEB78091190190911A01A8
:100500008130910591F08130910518F0029741F109
:1005100042C080E00E9454028093180181E090E084
:1005200090931A018093190136C080E00E94E30184
:10053000882379F080E00E9454028093180180E0C3
:100540000E94FB0182E090E090931A0180931901D0
:1005500022C081E090E090931A01809319011BC0A2
:1005600080E00E94E301882379F080E00E94540239
:100570008093180180E00E94FB0181E090E090935D
:100580001A018093190106C082E090E090931A014D
:100590008093190100000000DF91CF910895CF935F
:1005A000DF93CDB7DEB781E290E02FEFFC0120832F
:1005B00082E290E0FC0110828AE290E0FC0110826D
:1005C0008BE290E02FEFFC0120830E94BE0064E6E6
:1005D00070E080E090E00E94900080E00E946E0158
:1005E0000E94780282E290E020911801FC012083B1
:0605F000F7CFF894FFCFE5
:1005F600000000020000000067000000000001008B
:020606000000F2
:00000001FF
